:020000040000FA
:030000000200D328
:0300330002069C26
:03006B000205D6B5
:03007B0002062F4B
:1000830002091400000080FB1200E2B90003020021
:10009300CDE4900101783179028002F0A3D8FCD934
:1000A300FA900231AA82AB839000E578137901803C
:1000B30015E493A3AC82AD838A828B83F0A3AA82D7
:1000C300AB838C828D83D8E9D9E712094C12008661
:1000D30075D0007581BF75100175110102008B7910
:1000E3000122FF00000000000000000000000000EB
:1000F30000004901E0FAA3E0FBA3E0FCA3E0FD223A
:10010300EAF0A3EBF0A3ECF0A3EDF022700422607D
:100113000D18C6C333C608C633C6D5E0F41822E4A7
:10012300732510C582C0E0E51134FFC583C0E0E547
:1001330010C3958224F910AF08858311858210803E
:1001430008858311858210D2AFCEF0A3E520F0A3FA
:100153007808E608F0A3DEFAEFF0A3E58124FBF8C4
:10016300E608F0A3E608F0A30808E608F0A3E6080B
:10017300F0A315811581D0E0FED0E0F8158115813B
:10018300E8C0E0EEC0E022851183851082E0A3FE83
:10019300E0A3F5207808E0A3F608DFFAE0A3FFE088
:1001A300A3C0E0E0A3C0E0E0A3C0E0E0A3C0E01090
:1001B300AF0885821085831180088582108583119D
:1001C300D2AFD083D08222C0D02510C582C0E0E553
:1001D3001134FFC583C0E0E510C3958224F310AF4B
:1001E300088583118582108008858311858210D24A
:1001F300AFC8F0A3E9F0A3EAF0A3EBF0A37908E713
:1002030009F0A3D8FAECF0A3EDF0A3EEF0A3EFF01E
:10021300A3D0E0F0A3D0E0F0A3D0E0F0A3E520F07A
:10022300A3E5F0F0A322851183851082E0C0E0A34B
:10023300E0F9A3E0FAA3E0FBA37808E0F608A3DF64
:10024300FAE0FCA3E0FDA3E0FEA3E0FFA3E0C0E02F
:10025300A3E0C0E0A3E0F5D0A3E0F520A3E0A3F57D
:10026300F010AF088583118582108008858311857E
:100273008210D2AFD082D083D0E0F8D0E032C082F7
:10028300C0831208CA1206F379017A7D7B01120832
:100293009490017DE0C2E7F06405703D79057A7EB4
:1002A3007B01120894A3E0A2E55004D2F08002C2BD
:1002B300F0A2F0E433900239F0900182E0A2E7402B
:1002C30003020365900180E0F8900101E068600398
:1002D300020365A37401020364E024F5900236F07F
:1002E30090017DE0F97A7E7B01120894A3E0A2E5F8
:1002F3005004D2F08002C2F0A2F0E433900239F04D
:10030300900185E0F8A3E0F9900232E8F0A3E9F068
:100313009002377487F0A37401F0900236E0F8334B
:1003230095E0F9748728F8740139F988828983E0A4
:1003330090023AF088828983A3E0A2E7501C9002DE
:1003430031E0F8900180E068601090017EE054DFB6
:100353006441700690023B7401F0900180E09002CA
:1003630031F01206F61208DB807AC082C0838A82DB
:100373008B831207C3E9640170047901805212066A
:10038300F6A882A983900108E8F0A3E9F090023768
:10039300E4F0A3F090010304F090023D1200F79003
:1003A30001041201031203D5A3A3E0F912081D12DD
:1003B30004D1FAA3E0FB12082D1203D5E0FAA3E05F
:1003C300FB1208377A817B021208EC1206F37900DC
:1003D30080121203D922900108E0F8A3E0F5838884
:1003E30082A3A322D083D0822274F6120124EAFED0
:1003F300EBFF8C088D09890A900103E07003120852
:10040300BC7A67A90A1209B4E9F50A1209051208A8
:10041300CA740B250A90010AF01204DE90010B60E6
:1004230004746180027441F0A37488F0900101E0C8
:1004330090010DF09001091203DFE0F8A3E0F990B9
:10044300010EE8F0A3E9F0A3EEF0A3EFF01204D15C
:10045300F8A3E0F9900112E8F0A3E9F07A00802113
:100463008A82A882E50828F582E5093400F583E04D
:10047300C0E0741428F58274013400F583D0E0F0F1
:100483000AEAC3950A40D9740A250AF97A0A7B0154
:100493001208671208DB1208AD1204DE600F900128
:1004A30002E4F07A4A7B02120770E060047E008067
:1004B300027E01900103E070031208C3EEA2E04044
:1004C30006900101E004F0EEF97F0302018A900136
:1004D30008E0F8A3E0F5838882E0221203D9A3A3FE
:1004E300A3E022C082C083900103E4F01208C30298
:1004F30003E7E5C65480F853BEFBE59DA2E550FA39
:10050300E59DA2E240F4007401697007744948F55F
:10051300C68005E9700288C6E5C6F8E59E6870FBEB
:1005230043BE0422E9F8E59EA2E64003790122E8EE
:10053300700553C67F8008740168700343C680E565
:10054300C6F9E59E6970FB790022790112072579C6
:1005530002120725790312072579041207257A3237
:100563007B0012079B80E312075343FE01C29053A3
:10057300F3FD53FDFD438F0253F5FE53FFFE43F797
:100583000143F3400206F353F3FD53FDFD438F0292
:1005930022C082C083790012058AA281502278008A
:1005A300A281500478007900E8240108E93400F9B5
:1005B300C3E894F4E99401A2D265D03340E279010F
:1005C30053F3FD900227E0A2E0928143FD02D08322
:1005D300D08222C0E074F11201CAC2C5E589604726
:1005E3007E00750801750900EE780812010FAF0847
:1005F300E5895F602BEEC333F8E433F974FD28F526
:100603008274011206856014EEC333F8E433F9747F
:10061300FD28F5827401120690120122EFF452892B
:100623000EEEC3940840BB7F02020229C0E074F1BE
:100633001201CAC2EBE58A60477E0075080175099D
:1006430000EE780812010FAF08E58A5F602BEEC356
:1006530033F8E433F9740D28F582740212068560C9
:1006630014EEC333F8E433F9740D28F582740212DF
:100673000690120122EFF4528A0EEEC3940840BB97
:1006830080A539F583E0F8A3E0F9E8492239F58339
:10069300E0F8A3E0F583888222C0E074F11201CA76
:1006A300C2E8E58B60477E00750801750900EE78A6
:1006B3000812010FAF08E58B5F602BEEC333F8E43C
:1006C30033F9741D28F58274021206856014EEC393
:1006D30033F8E433F9741D28F5827402120690127C
:1006E3000122EFF4528B0EEEC3940540BB02062A9F
:1006F300D2AF22C2AF22C082C083E914600B146060
:100703000C14600D14600E8014D2908010D291806E
:100713000CD2948008D2819002277401F0D083D048
:100723008222C082C083E914600B14600D14600F31
:1007330014601180196390018014639002800F6329
:100743009010800A638002900227E06401F080CD5C
:100753007900120527E9601079011204F579001276
:100763000527E9600312054D79000204F5EBC31375
:10077300FBEA13FAEAF8EBF9E824FFFAE934FFFBA2
:10078300E8496013000000000000000000000000C2
:10079300000000000080DD2274F8120124EAFEEB61
:1007A300FFEEF8EFF9E824FFFEE934FFFFE84960C4
:1007B300097AE87B0312077080E77F0102018A222E
:1007C300C082C083906189E04460F09061FA74094B
:1007D300F09061B27415F09061AEE4F0900242E0E3
:1007E30060289061B27415F09061AEE4F09061EB13
:1007F3007468F0A3746AF090624474FBF0906247EB
:1008030004F043FD8079011208411208DB7900806E
:1008130004F0EBA3F0D083D08222C082C08375F0B2
:1008230005E9A424D490618F80EAC082C083EA9052
:10083300617480DDC082C083EA90617280D3C0821C
:10084300C083E9700FC2877408001470FC900241E2
:100853007443800DD2877408001470FC90024174B5
:100863004F02081774F712012475E1EE7591FD78B4
:10087300008003120883E8C39940F87F0202018ACB
:100883008808EA2508F582EB3400F583E0F5D908FA
:1008930022C082C083800DE5D98A828B83F0A3AA0C
:1008A30082AB8319E970F002081875E1E9E591A2BA
:1008B300E150FA7591FD79002275E1EC75E1E322CF
:1008C30075E1EF75E1EC22C082C0839061A3E0C2C1
:1008D300E6F0539AFE020818C082C0839061A3E039
:1008E300D2E6F0439A01020818C082C083E5A8F853
:1008F300C2AF900228EAF0A3EBF0E8A2E792AF02BE
:100903000818C082C083906193E0542270F80208F3
:1009130018C0E074F21201CAA2AFE433FEC2AFE51D
:10092300E9A2E6501A900228E0F8A3E0F9E849604A
:1009330008E0F5838882120122759B0053E9BFEE1C
:10094300A2E092AF7F0102022990022D7407F0A367
:100953007420F0A37419F0A37401F012056A12074E
:10096300C3E96401700312054D79011206F990027F
:100973002AE4F090022B7420F0A37425F07A2B7BE9
:100983000212036DE96401700312054D1204E612AD
:100993000594E9640170F879017C2A7D027AEF7B82
:1009A300BE1203EC1206F679031207C21206F38095
:0A09B300DEE9C39A500122EAF9229E
:04000005000000D324
:00000001FF
