:020000040000FA
:030000000200E318
:03002B000205D0FB
:03006B0002055A31
:03007B00020595E6
:1000830002051C00000080FB120113B900030200EB
:10009300CDE4900101780A79028002F0A3D8FCD95B
:1000A300FA90020AAA82AB8390011678167901802E
:1000B30015E493A3AC82AD838A828B83F0A3AA82D7
:1000C300AB838C828D83D8E9D9E775820B75830F57
:1000D30074001200F575828675830074001200F5B2
:1000E30075D0007581BF751001751101759F0002F0
:1000F300008BC09FF59FE473D09F22D083D082C032
:100103009FE493C0E0740193C0E0740293F59F22CF
:10011300790122FF000000000000000000000049F8
:1001230000000000008000001200FEE30500120042
:10013300FE8A06001200FEEB06001200FE180800FD
:100143001200FEA108001200FE3509001200FE4550
:1001530009001200FEC009001200FED409001200BB
:10016300FEE809001200FEED09001200FEF209008C
:100173001200FE280A001200FE530A001200FE7B42
:100183000A001200FEA80A001200FECF0A001200A5
:10019300FEFB0A001200FE0B0B001200FE210B00F7
:1001A3001200FE380B001200FE4F0B001200FE7B04
:1001B3000B001200FE9F0B001200FEB00B0012009A
:1001C300FEB90B001200FEC20B001200FED70B009B
:1001D3001200FEEC0B001200FE0B0C001200FE1EC0
:1001E3000C001200FE210C001200FE420C00120053
:1001F300FE780C001200FEAB0C001200FEBB0C00DC
:100203001200FEF90D001200FE0C0E001200FE2378
:100213000E001200FE3A0F001200FE690F001200DA
:10022300FE710F001200FE850F001200FE970F00F3
:100233001200FE631000080808EAC0E0EBC0E08685
:10024300F0E7A4FA180986F0E7A42AFA180986F059
:10025300E7A42AFA180986F0E7A42AFA1986F0E730
:10026300A4FBE5F02AFA190886F0E7A42BFBE5F0D6
:100273003AFA190886F0E7A42BFBE5F03AFA1818C6
:100283000986F0E7A4C5F02BFBE43AFA1908E7C5A1
:10029300F0C6A426F6E5F03BFBE43AFA1886F0E74D
:1002A300A4F6E5F00826F6E43B08F6E43A08F6D0AF
:1002B300E0FBD0E0FA226016080808C6C313C6188C
:1002C300C613C618C613C618C613C6D5E0EA2270ED
:1002D30009080808226016181818C6C333C608C6CA
:1002E30033C608C633C608C633C6D5E0EA22E026BD
:1002F300F008A3E036F008A3E036F008A3E036F0F8
:1003030022E046F008A3E046F008A3E046F008A385
:10031300E046F022E0F608A3E0F608A3E0F608A31F
:10032300E0F622E0FAA3E0FBA3E0FCA3E0FD22EA6F
:10033300F0A3EBF0A3ECF0A3EDF022CAC0E0E6F0EB
:10034300A308DAFAD0E0FA22251010AF08F510401E
:100353000215118008F51040021511D2AF22C0D04A
:10036300251010AF08F510500205118008F5105044
:10037300020511D2AFD0D0222510F58210AF08F5B7
:1003830010400215118008F51040021511D2AF85F7
:100393001183222510F582E43511F58322E47325B8
:1003A30010C582C0E0E51134FFC583C0E0E510C38A
:1003B300958224F810AF0885831185821080088503
:1003C3008311858210D2AFCEF0A3E520F0A3780885
:1003D300E608F0A3DEFAEFF0A3E58124FAF8E608D5
:1003E300F0A3E608F0A3E608F0A30808E608F0A3E4
:1003F300E608F0A315811581D0E0FED0E0F8158161
:1004030015811581E8C0E0EEC0E0228511838510D7
:1004130082E0A3FEE0A3F5207808E0A3F608DFFA64
:10042300E0A3FFE0A3C0E0E0A3C0E0E0A3C0E0E0FE
:10043300A3C0E0E0A3C0E010AF088582108583115C
:100443008008858210858311D2AFD083D0820200C9
:10045300FBC0D02510C582C0E0E51134FFC583C0C1
:10046300E0E510C3958224F310AF088583118582DC
:10047300108008858311858210D2AFC8F0A3E9F0FC
:10048300A3EAF0A3EBF0A37908E709F0A3D8FAEC09
:10049300F0A3EDF0A3EEF0A3EFF0A3D0E0F0A3D030
:1004A300E0F0A3D0E0F0A3E520F0A3E5F0F0A32271
:1004B300851183851082E0C0E0A3E0F9A3E0FAA3ED
:1004C300E0FBA37808E0F608A3DFFAE0FCA3E0FD75
:1004D300A3E0FEA3E0FFA3E0C0E0A3E0C0E0A3E04D
:1004E300F5D0A3E0F520A3E0A3F5F010AF088583D2
:1004F300118582108008858311858210D2AFD08246
:10050300D083D0E0F8D0E03274028000C0E0F4047D
:1005130012037BD0E012033E22C0E074F2120454B3
:10052300A2AFE433FEC2AFE5E9A2E650209001FD9D
:10053300E0F8A3E0F9E849600E9001FDE0F8A3E0DC
:10054300F58388821203A0759B0053E9BFEEA2E0F6
:1005530092AF7F010204B3C0E074F2120454E58940
:10056300C3940140267589007A647B001201FDE57E
:10057300897018C2917A647B001201FD43FE03D295
:10058300F0A29030F001B39290D291C2C57F0102E4
:1005930004B3C0E074F2120454E58AC39401402604
:1005A300758A007A647B001201FDE58A7018C29196
:1005B3007A647B001201FD43FE03D2F0A29030F077
:1005C30001B39290D291C2EB7F010204B3C0E074F5
:1005D300F2120454C2C779041202217F010204B348
:1005E30074F71203A2E9FEEAF8EBF9E8FAE9FB74FF
:1005F3000B2E8A828B83F0900108E0F8A3E0F58349
:100603008882A3A3A3A3A3E060067861798880040A
:1006130078417988E88A828B83A3F0E4E9F88A82B7
:100623008B83A3A3F0900101E08A828B83A3A3A30E
:10063300F0900108E0F8A3E0F5838882A3A3E0F833
:10064300A3E0F98A828B83A3A3A3A3E8F0A3E9F031
:100653008A828B83A3A3A3A3A3A3ECF0A3EDF090BF
:100663000108E0F8A3E0F5838882E0F8A3E0F98AC3
:10067300828B83A3A3A3A3A3A3A3A3E8F0A3E9F07B
:10068300790A7F0102040E74F21203A2ECFEEDFF5D
:100693008908A908EAFCEBFD7A0A7B0112012BE920
:1006A300FB7A0080348A0A750B00EE250AF582EF87
:1006B300350BF583E0C0E08B0A750B008A0C750DD2
:1006C30000E50A250CF8E50B350DF9740A28F582C7
:1006D300740139F583D0E0F00AEAC3950840C6EB0C
:1006E3002508F97F0602040E74F71203A27E7D7FAC
:1006F300011201C71201617901EEFAEFFB1201AF9A
:100703008E828F83E0C2E7F08E828F83E064057070
:10071300528E828F83E0F97A7E7B011201AF8E8243
:100723008F83A3E0A2E55004D2F08002C2F0A2F0CE
:10073300E433900212F07881790188828983A3E0FF
:10074300A2E7400302080D8E828F83A3A3A3E0F8E0
:10075300900101E068600302080D9001027401F04A
:1007630002080D8E828F83E024F590020FF08E82B3
:100773008F83E0F97A7E7B011201AF8E828F83A390
:10078300E0A2E55004D2F08002C2F0A2F0E433907C
:100793000212F08E828F83A3A3A3A3A3A3A3A3E038
:1007A300F8A3E0F990020BE8F0A3E9F090021074CB
:1007B30087F0A37401F090020FE0F83395E0F9900D
:1007C3000210E028F8A3E039F988828983E09002D7
:1007D30013F088828983A3E0A2E7502290020AE003
:1007E300F88E828F83A3A3A3E06860128E828F8327
:1007F300A3E054DF644170069002147401F08E820A
:100803008F83A3A3A3E090020AF01201671201CD24
:100813007F0102040E74F71203A2EAFEEBFF12013A
:100823008BE9640170047901806F120167900108FC
:10083300EEF0A3EFF09002107400F0A37400F090B8
:1008430001037401F09002171203269001041203AE
:1008530032900108E0F8A3E0F5838882A3A3A3A361
:10086300E0F9120197900108E0F8A3E0F58388828C
:10087300E0FAA3E0FB12019D900108E0F8A3E0F584
:10088300838882A3A3E0FAA3E0FB1201A37A377B58
:10089300011201D312016179007F0102040E74F584
:1008A3001203A2EAFEEBFF8C088D09890A9001036B
:1008B300E070031201BB7A67A90A1201F7E9F50A8E
:1008C3001201D91201C7A90AAC08AD09EEFAEFFB70
:1008D300120131E9F97A0A7B011201A91201CD1241
:1008E30001B5E960027E01900108E0F8A3E0F58319
:1008F3008882A3A3A3A3A3E0601C9001027400F069
:100903007A4A7B0212017F900102E0600474008046
:10091300027401FE80027E00900103E07003120165
:10092300C1EE7007900101E02401F0EEF97F0302AC
:10093300040EC082C083900214E0F9D083D08202F7
:1009430000FB74F21203A28A088B09890AECFEEDFC
:10095300FF120167AA0A90020FE0F91201F7E9F505
:100963000C750D00780C12050B900210E0FCA3E04F
:10097300FDAA08AB091202337402120361EE4F6041
:1009830024900213E0F5083395E0F509120191E98B
:10099300F87900E508C398F8E50999F98E828F8301
:1009A300E8F0A3E9F09002147400F0120161AA0ABE
:1009B30090020FE0F91201F77F0602040EC082C015
:1009C300839001037401F01201BBD083D082020033
:1009D300FBC082C0839001037400F01201C1D08375
:1009E300D0820200FBD2AF0200FBC2AF0200FBE5E4
:1009F300C65480F853BEFBE59DA2E550FAE59DA2DF
:100A0300E240F4007401697007744948F5C6800533
:100A1300E9700288C6E5C6F8E59EFAE86A70F9430C
:100A2300BE040200FBE9F8E59EA2E64004790180DA
:100A33001CE8700553C67F8008740168700343C6C1
:100A430080E5C6F9E59EFAE96A70F979000200FBD0
:100A5300C082C0837900120173E960107901120129
:100A63006D7900120173E960031201E57900120147
:100A73006DD083D0820200FBEBC313FBEA13FAEAC7
:100A8300F8EBF9E824FFFAE934FFFBE849601300C7
:100A93000000000000000000000000000000000053
:100AA30080DD0200FB74F71203A2EAFEEBFFEEF80F
:100AB300EFF9E824FFFEE934FFFFE84960097AE82B
:100AC3007B0312017F80E77F0102040EC082C08393
:100AD300906189E04460F09061FA7409F09061B22A
:100AE3007415F09061AE7400F01201DF1201CD793C
:100AF30000D083D0820200FBC082C083900216E044
:100B0300F9D083D0820200FBC082C08375F005E96F
:100B1300A424D490618FF0D083D0820200FBC082E2
:100B2300C083EA906174F0E4EBFA906175F0D083CE
:100B3300D0820200FBC082C083EA906172F0E4EBD2
:100B4300FA906173F0D083D0820200FB74F6120333
:100B5300A275E1EE7591FD78008013880875090090
:100B6300EA2508F582EB3509F583E0F5D908E8C3F2
:100B73009940E87F0202040EC082C0838011E5D948
:100B83008A828B83F08A828B83A3AA82AB8319E93F
:100B9300C3940150E9D083D0820200FB75E1E9E5FB
:100BA30091A2E150FA7591FD79000200FB75E1EC29
:100BB30075E1E30200FB75E1EF75E1EC0200FBC0B8
:100BC30082C0839061A3E0C2E6F0539AFED083D043
:100BD300820200FBC082C0839061A3E0D2E6F043AF
:100BE3009A01D083D0820200FBC082C083A2AFE40B
:100BF30033F8C2AF9001FDEAF0A3EBF0E8A2E09274
:100C0300AFD083D0820200FBC082C083906193E0A7
:100C1300542270F8D083D0820200FB0200FBC08212
:100C2300C08379011201F179021201F179031201F2
:100C3300F179041201F17A327B0012018580E3C05D
:100C430082C08312017943FE01C29043FE02D29116
:100C530053F3FD53FDFD438F0253F5FE53FFFE4354
:100C6300F70153F5FE53FFFE43F70143F340D083EF
:100C7300D0820200FBC082C083E914600B14600DB4
:100C830014600F1460118019639001801463900243
:100C9300800F639010800A6380029001FFE064017B
:100CA300F0D083D0820200FBE9F8E8C39A5004E84D
:100CB300F98002EAF90200FB780079008008E82451
:100CC30001F8E93400F9C3E89AE99B40F178007927
:100CD300008008E82401F8E93400F9C3E89AE99BA5
:100CE30040F1780079008008E82401F8E93400F93C
:100CF300C3E89AE99B40F1780079008008E8240171
:100D0300F8E93400F9C3E89AE99B40F178007900E7
:100D13008008E82401F8E93400F9C3E89AE99B4024
:100D2300F1780079008008E82401F8E93400F9C378
:100D3300E89AE99B40F1780079008008E82401F8FB
:100D4300E93400F9C3E89AE99B40F178007900801F
:100D530008E82401F8E93400F9C3E89AE99B40F173
:100D6300780079008008E82401F8E93400F9C3E841
:100D73009AE99B40F1780079008008E82401F8E9BA
:100D83003400F9C3E89AE99B40F1780079008008C0
:100D9300E82401F8E93400F9C3E89AE99B40F178C3
:100DA3000079008008E82401F8E93400F9C3E89ADF
:100DB300E99B40F1780079008008E82401F8E934E0
:100DC30000F9C3E89AE99B40F1780079008008E8CC
:100DD3002401F8E93400F9C3E89AE99B40F178006B
:100DE30079008008E82401F8E93400F9C3E89AE9B6
:100DF3009B40F10200FB538FFE43AB01438C01D2B6
:100E0300AFD2BD8589890200FB53F6FB53F79F439D
:100E13008D04538CFDD2AF439A10858B8B0200FB5C
:100E230074F71203A27508007E007F009002047419
:100E3300EFF0A374BEF07A047B0212013DE9640172
:100E430070031201E5120155900202740BF01201B6
:100E5300EB12021B120203120209802C900203E020
:100E630064167018900200E0C39401500FD2909062
:100E73000200E02401F09002017400F07A027B008A
:100E830012022D79021202217EE87F037A047B028B
:100E930012013DE9640170031201E579017C027DD1
:100EA300027A207B25120143E91201557A057B0062
:100EB300120215120149E97010EEF8EFF9E824FF68
:100EC300FEE934FFFFE84970EA12015B7C007D0014
:100ED30079017A037B0212014FE9C39401409D908B
:100EE3000203E064376003020E5F900201E0C394E3
:100EF300014003020E5FC290900201E02401F090D2
:100F030002007400F0020E7F7E009002067407F068
:100F1300A37420F09002087419F09002097401F090
:100F23001201EB12018BE9640170031201E5120255
:100F33002712020F0200FB7C007D008019E82401C8
:100F4300F8E93400F9C3E89417E9940240EFEC247C
:100F530001FCED3400FDC3EC9AED9B50067800795B
:100F63000080E20200FB43FE03C2900200FBE9C3E0
:100F730094045008E942BE75870180037587000217
:100F830000FB75970075960F75950FD2AFD2ADC262
:100F9300C70200FB74F01203A274FC12034B8A080D
:100FA3008B09900217120326851082851183120381
:100FB3003285950CE4F50DF50EF50F85108285113C
:100FC30083780C12030485960CE4F50DF50EF50FEA
:100FD3007408780C1202D2851082851183780C1262
:100FE300030485970CE4F50DF50EF50F7410780CDA
:100FF3001202D2851082851183780C120304E4F562
:101003000AF50B90021B780C1203177808790C125F
:10101300023985108285118378081202F1851082C6
:101023008511837808120317741078081202B9E542
:1010330008F5978510828511837808120317E4E574
:1010430009F508E508F5968510828511837808125D
:101053000317E508F59574041203617F0802040E73
:1010630074F61203A2740A120396E0FEA3E0FFEAE9
:10107300F8EBF980188C828D83E088828983F0A352
:10108300A882A9838C828D83A3AC82AD838E088FC3
:1010930009E50824FF1EE50934FFFFE5084509704B
:0610A300D47F0202040EDE
:04000005000000E314
:00000001FF
