:020000040000FA
:030000000200D328
:030033000213C0F5
:03004B0002100A96
:03006B0002130F6E
:03007B0002136904
:10008300020FD200000080FB1200E2B9000302005D
:10009300CDE4900101786B79028002F0A3D8FCD9FA
:1000A300FA90026BAA82AB839000E57827790280ED
:1000B30015E493A3AC82AD838A828B83F0A3AA82D7
:1000C300AB838C828D83D8E9D9E7121A111200868B
:1000D30075D0007581BF75100175110102008B7910
:1000E30001222D3364426D003064426D003464425A
:1000F3006D003130303020506B747300313030304C
:100103003020506B74730031303030303020506BFE
:100113007473003130303030303020506B747300E2
:100123003130302F7365636F6E640035302F736524
:10013300636F6E640032302F7365636F6E640031DA
:10014300302F7365636F6E6400504552205465739E
:10015300746572004A6F79737469636B20507573A9
:10016300680073746172742F73746F7000547261DA
:100173006E736D69747465720053656E743A200012
:100183005045522054657374005061636B6574204D
:10019300726174653A200042757273742053697AF0
:1001A300653A20005458204F757470757420506F51
:1001B3007765723A2000FF00000000000000000095
:1001C30000006B02007102017602024B03037B0203
:1001D300008502019002029C0203E803000010273D
:1001E3000000A086010040420F00570304A90264E7
:1001F300B40232BE0214C8020A76030400000000EF
:100203000A00000001000000E066701008A3E06629
:10021300700A08A3E066700408A3E06622C3E096B0
:1002230008A3E09608A3E09608A3E096A2D265D0BF
:100233003322C3E7960809E7960809E7960809E712
:100243009622E4CFC0E0E4CEC0E0E4CDC0E0E4CC4D
:10025300C0E075F020C3E633F608E633F608E6336C
:10026300F608E633F6181818EC33FCED33FDEE33DD
:10027300FEEF33FFC3EC9709ED9709EE9709EF976C
:10028300191919400FFFEC97FC09ED97FD09EE973B
:10029300FE191906D5F0BEECF709EDF709EEF709DB
:1002A300EFF7191919D0E0FCD0E0FDD0E0FED0E063
:1002B300FF2212031D18181812024512030C1919F4
:1002C300192212030C191919080808E6181818201E
:1002D300E7E012024512031D18181822090909E75D
:1002E30019191920E7DC080808E618181820E7038D
:1002F30002024512031D18181812024512031D1895
:10030300181812030C19191922E4C397F709E49773
:10031300F709E497F709E497F722E4C396F608E4AC
:1003230096F608E496F608E496F622E026F608A385
:10033300E036F608A3E036F608A3E036F622E02618
:10034300F008A3E036F008A3E036F008A3E036F0A7
:1003530022E0F608A3E0F608A3E0F608A3E0F622FD
:10036300E6F008A3E6F008A3E6F008A3E6F022CA45
:10037300C0E0E6F0A308DAFAD0E0FA22B90010BB35
:100383000008E88AF084F8AAF022E4FBC8FA22EB1A
:1003930070227B10C833C8C933C9335007C39AC30B
:1003A300DBF280069A50012ADBEAC833F4C8C9336A
:1003B300F4C9FA2275F008E4C833C8C933C933C98C
:1003C3009AC99B5004C92AC93BD5F0ECFBC833F446
:1003D300C8E4C9FA22700422600D18C6C333C608E4
:1003E300C633C6D5E0F41822251010AF08F5104027
:1003F3000215118008F51040021511D2AF22C0D0AA
:10040300251010AF08F510500205118008F51050A3
:10041300020511D2AFD0D0222510F58210AF08F516
:1004230010400215118008F51040021511D2AF8556
:100433001183222510F582E43511F58322E4732517
:1004430010C582C0E0E51134FFC583C0E0E510C3E9
:10045300958224F9F8E4C5A8858311858210C5A87F
:10046300E8CEF0A3E520F0A37808E608F0A3DEFACF
:10047300EFF0A3E58124FBF8E608F0A3E608F0A378
:100483000808E608F0A3E608F0A315811581D0E07B
:10049300FED0E0F815811581E8C0E0EEC0E02285CA
:1004A3001183851082E0A3FEE0A3F5207808E0A382
:1004B300F608DFFAE0A3FFE0A3C0E0E0A3C0E0E0BA
:1004C300A3C0E0E0A3C0E0E4C5A885821085831142
:1004D300C5A8D083D08222C0D02510C582C0E0E554
:1004E3001134FFC583C0E0E510C3958224F310AF38
:1004F300088583118582108008858311858210D237
:10050300AFC8F0A3E9F0A3EAF0A3EBF0A37908E7FF
:1005130009F0A3D8FAECF0A3EDF0A3EEF0A3EFF00B
:10052300A3D0E0F0A3D0E0F0A3D0E0F0A3E520F067
:10053300A3E5F0F0A322851183851082E0C0E0A338
:10054300E0F9A3E0FAA3E0FBA37808E0F608A3DF51
:10055300FAE0FCA3E0FDA3E0FEA3E0FFA3E0C0E01C
:10056300A3E0C0E0A3E0F5D0A3E0F520A3E0A3F56A
:10057300F0E4C5A8858311858210C5A8D082D083F5
:10058300D0E0F8D0E0327404800474028000C0E04C
:10059300F40412041BD0E012037222D083D082C56C
:1005A300F0E493A3C5F0C395F0F5F0E493A3C395EA
:1005B300F04005E5F0048001E475F002A42582F51E
:1005C30082E5F03583F583E493A3C0E0E493C0E0D0
:1005D3002200000000000000000070F8F870000026
:1005E30000003878000078380020F8F820F8F82068
:1005F3000060F09C9C9010000060600080C0600070
:1006030000B0F8C8F8B0008000004078380000005F
:100613000000C0E0301808000000081830E0C000F7
:100623000080A0E0C0C0E0A080008080E0E0808087
:100633000000000000000000008080808080808037
:1006430000000000000000000000000080C06030D7
:1006530000F0F808C868F8F0002020F0F800000067
:100663000030380888F870000010188888F8700087
:100673000080C06030F8F80000F8F8888888080027
:1006830000E0F09888880000003838080888F87877
:100693000070F8C888F870000070F88888F8F000D7
:1006A3000000006060600000000000606060000007
:1006B3000080C060301808000000404040404040C7
:1006C300000008183060C08000101888C878300017
:1006D30000F0F808C8C8F8F000E0F01818F0E000DF
:1006E3000008F8F88888F87000E0F0180808383037
:1006F3000008F8F80818F0E00008F8F88888C81827
:100703000008F8F88888D83800E0F018080838306E
:1007130000F8F88080F8F800000008F8F8080000F6
:100723000000000008F8F8080008F8F880E07818DE
:100733000008F8F80800000000F8F870E070F8F816
:1007430000F8F8E0C080F8F800E0F0180818F0E0CE
:100753000008F8F88888F87000E0F0180818F0E04E
:100763000008F8F88888F8700070F8888838300036
:10077300001808F8F808180000F8F80000F8F80066
:1007830000F8F80000F8F80000F8F8008000F8F826
:10079300003878C0C07838000078F88080F8780096
:1007A30000381888E8781818000000F8F8080800DE
:1007B300003060C0800000000000000808F8F80066
:1007C300002030180C18302000000000000000004A
:1007D3000000000C1C1000000000404040C08000DE
:1007E3000008F8F84040C0800080C04040C080004E
:1007F3000080C04048F8F8000080C04040C080003E
:100803000080F0F8889810000080C0404080C0400D
:100813000008F8F88040C08000004040D8D80000AD
:100823000000004040D8D8000008F8F80080C0401D
:1008330000000808F8F8000000C0C040C040C080B5
:1008430000C0C04040C080000080C04040C0800065
:100853000040C0804040C0800080C0404080C04015
:100863000040C0C000C0C0800080C04040C08000C5
:100873000040E0F04040400000C0C00000C0C000A5
:1008830000C0C00000C0C00000C0C0000000C0C065
:100893000040C0800080C0400000C0C00000C0C055
:1008A30000C0404040C0C0000080C070380808004D
:1008B30000000000787800000008083870C080004D
:1008C3000030380818302038080080C060C080002D
:1008D30000000000000000000000000D0D000000FB
:1008E300000000000000000000020F0F020F0F02C3
:1008F3000004041C1C070300000C0603010C0C007D
:1009030000070F080D070F0900000000000000009A
:1009130000000103060C08000000080C0603010098
:1009230000000203010103020000000003030000B2
:100933000000101C0C0C0000000000000000000070
:100943000000000C0C0C0000000C0603010000006A
:1009530000070F0B09080F070008080F0F0808000E
:10096300000C0E0B090C0C0000040C08080F070008
:1009730000010101090F0F0900040C08080F07000B
:1009830000070F08080F07000000000E0F0100000A
:1009930000070F08090F07000000080C0F030000F1
:1009A3000000000606060000000000161E0E0000F0
:1009B30000000103060C0800000001010101010110
:1009C3000000080C060301000000000D0D000000EC
:1009D30000070F0809090901000F0F01010F0F009C
:1009E30000080F0F08080F070003070C08080E067E
:1009F30000080F0F080C070300080F0F0808090C65
:100A030000080F0F080001000003070C08090F0F6F
:100A1300000F0F00000F0F000000080F0F08000069
:100A230000070F08080F070000080F0F00030F0C43
:100A330000080F0F08080E0F000F0F0000000F0F24
:100A4300000F0F0001030F0F0003070C080C07032F
:100A530000080F0F0800000000030704161F1F13F0
:100A630000080F0F00010F0E00060E08090F060005
:100A73000000080F0F08000000070F08080F070009
:100A83000003070C0C07030000010F0E010E0F01FA
:100A9300000E0F01010F0E000000080F0F080000E9
:100AA300000C0F0B08080C0E0000000F0F080800C5
:100AB300000000000103060C00000008080F0F00EF
:100AC30000000000000000000010101010101010B3
:100AD300100000000000000000060F0909070F08BE
:100AE30000080F0708080F0700070F08080C040089
:100AF30000070F0808070F0800070F09090D050075
:100B030000080F0F0800000000133724243F1F00C4
:100B130000080F0F00000F0F000008080F0F080850
:100B230000183820203F1F0000080F0F01030E0C90
:100B3300000008080F0F0808000F0F0007000F0F31
:100B4300000F0F00000F0F0000070F08080F07002A
:100B530000203F3F28080F0700070F08283F3F806A
:100B630000080F0F0900010100040D090A0E04001B
:100B73000000070F080C040000070F0808070F0800
:100B83000003070C0C07030000030F0C030C0F03F7
:100B930000080C0703070C0800202327341C0F034D
:100BA300000C0E0A09090C00000001070E080800DA
:100BB300000000000F0F00000008080E07010000EE
:100BC30000000000000000000007070404040707FA
:100BD30000C082C083120FB0D2AF79017A7D7B014E
:100BE300120F9790017DE0C2E7F064057037790535
:100BF300120CB05004D2F08002C2F0A2F0E492E0F2
:100C0300900347F0900182E0A2E74003020CA89012
:100C13000180E0FA900101E06A6003020CA874010C
:100C2300900102807FE024F5900344F090017DE081
:100C3300F9120CB05004D2F08002C2F0A2F0E49298
:100C4300E0900347F0900185120E69900340E8F0AD
:100C5300A3E9F09003457487F0A37401F090034473
:100C6300E0F83395E0F9E82487F8E93401F988825C
:100C73008983E0900348F088828983A3E0A2E75048
:100C83001C90033FE0FA900180E06A601090017EBF
:100C9300E054DF644170067401900349F0900180D1
:100CA300E090033FF0C2AF120FC102130A7A7E7BBA
:100CB30001120F9790017EE0A2E52274F51204421F
:100CC3008A828B83120F73E9640170047901807344
:100CD300C2AFA882A983900108E8F0A3E9F09003CA
:100CE30045E4F0A3F07401900103F09003857808C4
:100CF300120354900104780812036375F005900100
:100D03000812111DA3A3A3A3E0A424D490618F12FE
:100D13000E4EE8906174F0E9906175120E61E890EF
:100D23006172F0E9906173F0A2AFE492E0FAC2AFAE
:100D33009001FD74D4F0A3740BF0EAA2E092AFD259
:100D4300AF79007F040204A274F6120442EAFEEBB8
:100D5300FF8C088D09890A900103E0700675E1ECA8
:100D630075E1E3E9C394674003750A67906193E013
:100D7300542270F8120FB0740B250A90010AF01276
:100D83000E596004786180027841E890010BF07499
:100D93008890010CF0900101E090010D120E61901A
:100DA300010EE8F0A3E9F0900110EEF0A3EF120EAC
:100DB3004E900112E8F0A3E9F07A0080208A82A81D
:100DC30082E50828F582E5093400F583E0C0E0E810
:100DD3002414F582E43401F583D0E0F00AEAC395E4
:100DE3000A40DA740A250AFB75E1EE7591FD7A0073
:100DF30080118A08E508240AF582E43401F583E0CA
:100E0300F5D90AEAC39B40EA120FC175E1E9E591FE
:100E1300A2E150FA7591FD120E59600FE4900102A0
:100E2300F07A4A7B02120F15E060047900800279A0
:100E330001900103E0700675E1EF75E1ECE97006DE
:100E4300900101E004F07F030204A2F09001081274
:100E53001121120E6922120E6FA3A3A3E022F01236
:100E63000E6F120E6922E0F8A3E0F9229001081236
:100E73001125A3A322C008C009750801750900EB59
:100E830078081203D8E50845F2F5F2C28DEA494B1A
:100E9300F5B6A28D50FCE5BBFDE5BAFC75080175FE
:100EA3000900EB78081203D8E508F455F2F5F2ECE3
:100EB300FAEDFBD009D00822748055C6FA53BEFB65
:100EC300E59DA2E550FAE59DA2E240F400740169B4
:100ED300700774494AF5C68005E970028AC6E5C6FB
:100EE300FAE59EFBEA6B70F943BE0422E59EA2E697
:100EF3004003790122E9700553C67F8008740169B4
:100F0300700343C680E5C6FAE59EFBEA6B70F97988
:100F13000022EBC313FBEA13FAEAF8EBF974FF2898
:100F2300FA74FF39FB74006870037400696013007E
:100F330000000000000000000000000000000000AE
:100F430080D72274F8120442EAFEEBFFEEF8EFF9C1
:100F530074FF28FE74FF39FF74006870037400691E
:100F630060097AE87B03120F1580E17F010204A276
:100F7300C082C083906189E04460F074099061FA93
:100F8300F074159061B2F0E49061AEF0120FC17984
:100F93000002130AC082C083800DE5D98A828B8345
:100FA300F0A3AA82AB8319E970F002130AC082C0CE
:100FB300839061A3E0C2E6F0539AFE02130AC08253
:100FC300C0839061A3E0D2E6F0439A0102130AC002
:100FD300E074F21204DAA2AFE492E0FEC2AFE5E9F4
:100FE300A2E650199001FDE07002A3E060099001B0
:100FF300FD12111D120440759B0053E9BFEEA2E0E0
:1010030092AF7F01020539C0E074F21204DA900155
:10101300FFE07002A3E060099001FF12111D1204AA
:101023004080DFC292C280C2F989F9A2F950FC0064
:10103300000000D29222C292D280C2F989F9A2F9A9
:1010430050FC80EB74F112044274FE1203EB890B23
:10105300EAFEEBFF121A87EAF50C851082851183ED
:10106300EEF0A3EFF074FF250BC333FA79001211EE
:101073002E750A0080238E828F83E0F874E0281295
:1010830012121203D885080E85090FA3AE82AF830F
:10109300F50D12110540FB050AE50AC3950C40D670
:1010A300E50BC33314FA790012112E750A0080413F
:1010B30085108285118312111DE0F8744028F5080C
:1010C300E41212161203D885080E85090F851082C3
:1010D300851183E02401F8A3E03400F985108285AB
:1010E3001183E8F0A3E9F0750D0012110540FB052B
:1010F3000AE50AC3950C40B874021204017F080282
:1011030004A2850D08E508250EF8E4350F12120038
:10111300050DE50DC3940822F58312112122121146
:101123002522E0F8A3E0F583888222EEC0E0E9FE01
:1011330074B04AF9121026EEC4540F4410F9121079
:1011430026740F5EF9121026D0E0FE2274F8120402
:10115300427F007E00EFFAEEF912112E7900121091
:10116300390EEEC3948440ED0FEFC3940840E47F3F
:10117300010204A274F3120442890A8A0B8B0CEA5B
:10118300C394105073E9C39405506D74FF250AC3CB
:1011930033FAE50B33333354F8F912112E850C0867
:1011A30074E025081212121203D8AE08AF09F50D28
:1011B300850D08E5082EF8E43F12111040F2E50A08
:1011C300C33324FFFAE50B33333354F8F912112EEA
:1011D3007440250CF508E41212161203D8AE08AFBA
:1011E30009F50A850A08E5082EF8E43F12120005FE
:1011F3000AE50AC3940840EB7F060204A2F9E82437
:10120300D4F582E93405F583E493F912103922F514
:101213000874FF3400F509740378082274F7120484
:1012230042EA7001EB60307C008A828B83E06013BA
:10123300C0E012125FD0E0F08A828B83A3AA82AB54
:1012430083800612125F7420F00CECC3941040D913
:101253007A017B021210477F020204A28C08E50880
:101263002401F582E43402F5832274F8120442EC7B
:10127300FEEDFF7408120436120E6988828983EA30
:101283007001EB6005790112121FEE7001EF600926
:10129300EEFAEFFB790212121FE5827002E583601A
:1012A30009AA82AB83790312121F02117279011208
:1012B30014EA79021214EA79031214EA7904121473
:1012C300EA7A327B00120F4680E3C082C083790042
:1012D300121A70A28150227800A2815004780079FA
:1012E30000E8240108E93400F9C3E894F4E994011F
:1012F300A2D265D03340E2790153F3FD90023CE082
:10130300A2E0928143FD02D083D08222C0E074F137
:101313001204DAC2C5E58960487E007508017509C3
:1013230000EE78081203D8AF08E5895F602CEEC39E
:1013330033F8E433F9E82411F582E93402F583E064
:101343007002A3E0600EE82411F582E93402121161
:101353001B120440EFF45589F5890EEEC39408403F
:10136300BA7F02020539C0E074F11204DAC2EBE578
:101373008A60487E00750801750900EE780812033B
:10138300D8AF08E58A5F602CEEC333F8E433F9E89D
:101393002421F582E93402F583E07002A3E0600EB4
:1013A300E82421F582E9340212111B120440EFF400
:1013B300558AF58A0EEEC3940840BA80A4C0E0743F
:1013C300F11204DAC2E8E58B60487E007508017506
:1013D3000900EE78081203D8AF08E58B5F602CEEA6
:1013E300C333F8E433F9E82431F582E93402F583B1
:1013F300E07002A3E0600EE82431F582E9340212C2
:10140300111B120440EFF4558BF58B0EEEC39405BC
:1014130040BA02136474F71204427E00A2A0E4925D
:10142300E0FF7B067A107980120E788B09A909EF09
:101433006008747F59C3945450097E00E490023BC2
:10144300F080237A037B00120F150EEEC394034042
:10145300CB90023BE0700D7401F0FE7A647B0012C6
:101463000F4680027E00EEF902125A74F71204420C
:10147300E9FE7B067A107980120E788B09A909742C
:101483007F59F9E4C9F8C39428E494004028C3E8D9
:10149300943CE49400500309801CC3E8944AE49408
:1014A3000050030980F1C3E89454E4940050050903
:1014B300090980027904EE6970B602125AC082C02B
:1014C30083E912059E0103E714D414D814DC14E055
:1014D30014C290800FC291800BC2948007C281E432
:1014E30090023CF002130AC082C083E912059E01F8
:1014F300031D15FE1405150A151115639001E590DA
:10150300801863900280F7639010E590800C6380ED
:1015130002E58090023CE06401F002130A74F112C8
:10152300044274FB1203EB7401120436EAF0A3EBDA
:10153300F0A3ECF0A3EDF07A3D7B027401120436C4
:10154300C082C0839003857808120354D083D0826D
:10155300780812022050227401851082851183F0CD
:101563001204367808120354780812031D7401120A
:10157300043678081203638008E48510828511839A
:10158300F07401120436780C12035490038978081E
:10159300120354780C79081202DFE50824308A829A
:1015A3008B83F0A3AA82AB837401120436780C12E6
:1015B30003549003897808120354780C79081202B3
:1015C300DF7401120436780C1203637401120436BB
:1015D300C082C0839003857808120354D083D082DD
:1015E300780812020B709A851082851183E0600BD4
:1015F300742D8A828B83F0A30AAB83E412163178AD
:101603003D790280198A828B83E0FC88828983E09A
:10161300121631EC88828983F0A3A882A983C3E8D8
:101623009AE99B40E07A3D7B0274050210FD8A82B1
:101633008B83F0EA24FF1AEB34FFFB2274F51204C8
:1016430042EAFEEBFF750A00750B018056E50B605D
:10165300521216F6E0FAA3E0FB790212121F7B3C4A
:101663007A0079031211777B3E7A0F79031211778F
:10167300750B0075080075090012146EE9640460A7
:1016830006750800750900E5082401F508E5093425
:1016930000F509C3E50894F4E5099401A2D265D0E5
:1016A3003340D61212CDE96401603E12146EE96430
:1016B3000370187401250AC0E08E828F83A3A3E010
:1016C300F5F0D0E084E5F0F50A808612146EE96443
:1016D300026003021650E50A700A8E828F83A3A369
:1016E300E01480E3150A0216541216F6A3A3E0F9D8
:1016F300020D46E50A75F003A4F8A9F08E828F83E4
:10170300E028FAA3E0398A82F5832274F2120442B4
:10171300890E8A0C8B0DECFEEDFF740E12043678E5
:1017230008120354AA08AB09AC0AAD0B1215208AA0
:10173300088B09A808A9097A00E50C7002E50D6079
:1017430020850C82850D83E06017C0E01217B9D0A5
:10175300E0F0850C82850D83A385820C85830D8043
:101763004088828983E06013C0E01217B9D0E0F0AB
:1017730088828983A3A882A9838026EE7001EF6003
:101783001A8E828F83E06013C0E01217B9D0E0F0A5
:101793008E828F83A3AE82AF8380061217B9742023
:1017A300F00AEAC3941040917A497B02A90E1212FF
:1017B3001F7F070204A28A08E5082449F582E4345E
:1017C30002F58322C082C0837401900269F0021380
:1017D3000AC082C08390026AE06401F0E06007D22D
:1017E300B943E4028002C2B902130A74F11204423B
:1017F30074FC1203EB90038578081203549002598A
:101803007420F0A37425F07A597B02120CBEE964AC
:101813000170031212B07A2D7B03790112121F7A21
:10182300547B0312163FE912059E0002461837182F
:101833003B183F187AB580067AD580027AF5EA908C
:101843006190F07A207B03790112121F7A737B0374
:1018530012163FE9F50C750D007402780C1203D8CB
:10186300E50C2463F582E50D3403F583780C12034C
:1018730054851082851183780C120363E49001036D
:10188300F075E1EF75E1EC7A127B03790112121F17
:101893007A827B0312163FE978007980FA7B001283
:1018A300037F880C890D43E40CE5E4E994204009A7
:1018B3007EFF7FFF1212B0800B7403780C1203D8E3
:1018C300AE0CAF0DEFF5DBEEF5DA75E54453AFFE85
:1018D300C2B9A2AFE492E0F8C2AF9001FF74C7F0BF
:1018E300A37417F0E8A2E092AF121A7A90038578F6
:1018F3000C12035490025F780C1203637A00EA24FB
:1019030063F582E43402F583EAF00AEAC3940640FD
:10191300ED12114F750CEB750D02780C12058D7CD1
:10192300DD7D027AD27B028033900385780812032F
:1019330054900385780C12035490025F780C1203C1
:101943006312114F79031214C0750CEB750D0278F5
:101953000C12058D7CDD7D027A097B0312126D74F6
:1019630002120401121418E960FA1217D412114F6B
:10197300750C00750D00780C12058D7CF67D027ACE
:10198300D27B0212126D740212040180047A00EAFF
:10199300F090026AE06092121418E960031217D4FF
:1019A300851082851183780C120354780C79081200
:1019B30002355050900269E0640170D5790A7C5F6A
:1019C3007D027AEF7BBE120D4B90038D780C1203D0
:1019D3005490025F780C12034190038D7808120330
:1019E3002E78081205897C007D007A027B03790337
:1019F30012170E7404120401E4900269F0790312C1
:101A030014EA808D90026AE070837A018081E49009
:101A13000269F090026AF090025B7407F0A37420ED
:101A2300F0E490025EF0F9120EEFE9601079011212
:101A33000EBB7900120EEFE960031212B0790012A7
:101A43000EBB43FE01C290121A70121A7AD2AF1261
:101A53000F73E9640170031212B0D2901212CDE930
:101A6300640170081217EE79011214C02253F3FDBA
:101A730053FDFD438F022253F5FE53FFFE43F7014F
:101A830043F34022C082C0838A828B838001A3E018
:101A930070FCE582C39AFAE5839BFBD083D0822254
:04000005000000D324
:00000001FF
