:020000040000FA
:030000000200D328
:030033000210BCFC
:03006B00020FF68B
:03007B0002105A16
:10008300020C9F00000080FB1200E2B90003020093
:10009300CDE490010178E879018002F0A3D8FCD97E
:1000A300FA9001E8AA82AB839000E5780E7902808A
:1000B30015E493A3AC82AD838A828B83F0A3AA82D7
:1000C300AB838C828D83D8E9D9E71215671200863A
:1000D30075D0007581BF75100175110102008B7910
:1000E3000122434831312000434831322000434844
:1000F3003133200043483134200043483135200058
:1001030043483136200043483137200043483138D3
:10011300200043483139200043483230200043480F
:10012300323120004348323220004348323320002A
:1001330043483234200043483235200043483236A6
:100143002000323432300032343330003234333131
:10015300003235323000323533300032353331003E
:100163003235313000323531310031313130003107
:10017300313131002D2D2D2D00202020434378785F
:10018300787820282029002020200000000000008B
:10019300000000000000000000000000000000005C
:1001A30000000000002020205449204C50570053E9
:1001B3007065637472756D20416E6C002064426DCE
:1001C30000490200010000E801EE01F401FA010018
:1001D3000206020C02120218021E0224022A023034
:1001E3000236023C024202000000000A000000C383
:1001F300E09608A3E09608A3E09608A3E096A2D2AF
:1002030065D03322E4CFC0E0E4CEC0E0E4CDC0E06B
:10021300E4CCC0E075F020C3E633F608E633F60815
:10022300E633F608E633F6181818EC33FCED33FD25
:10023300EE33FEEF33FFC3EC9709ED9709EE970911
:10024300EF97191919400FFFEC97FC09ED97FD097A
:10025300EE97FE191906D5F0BEECF709EDF709EE96
:10026300F709EFF7191919D0E0FCD0E0FDD0E0FE53
:10027300D0E0FF221202DF1818181202071202CE72
:10028300191919221202CE191919080808E61818A3
:100293001820E7E01202071202DF181818220909D2
:1002A30009E719191920E7DC080808E618181820C7
:1002B300E7030202071202DF1818181202071202DC
:1002C300DF1818181202CE19191922E4C397F70977
:1002D300E497F709E497F709E497F722E4C396F65E
:1002E30008E496F608E496F608E496F622E0F608A3
:1002F300A3E0F608A3E0F608A3E0F622E6F008A3DD
:10030300E6F008A3E6F008A3E6F022CAC0E0E6F0B0
:10031300A308DAFAD0E0FA22CAC0E0E0A3C582CC8F
:10032300C582C583CDC583F0A3C582CCC582C583F1
:10033300CDC583DAE6D0E0CA22C3E498F8E499F99C
:1003430012037D8026C3E49AFAE49BFBE920E7E9E4
:1003530012037DE498F8E499F922C3E498F8E49948
:10036300F912037DE498F8E499F9C3E49AFAE49B5B
:10037300FB22EB20E7CFE920E7E0B90010BB000840
:10038300E88AF084F8AAF022E4FBC8FA22EB702290
:100393007B10C833C8C933C9335007C39AC3DBF2D0
:1003A30080069A50012ADBEAC833F4C8C933F4C97A
:1003B300FA2275F008E4C833C8C933C933C99AC9E6
:1003C3009B5004C92AC93BD5F0ECFBC833F4C8E4FD
:1003D300C9FA22700422600D18C6C333C608C63397
:1003E300C6D5E0F41822251010AF08F51040021509
:1003F300118008F51040021511D2AF22C0D025108C
:1004030010AF08F510500205118008F510500205D1
:1004130011D2AFD0D0222510F58210AF08F51040CD
:100423000215118008F51040021511D2AF85118312
:10043300222510F582E43511F58322E4732510C5D6
:1004430082C0E0E51134FFC583C0E0E510C39582A7
:1004530024F910AF088583118582108008858311E4
:10046300858210D2AFCEF0A3E520F0A37808E6088A
:10047300F0A3DEFAEFF0A3E58124FBF8E608F0A38E
:10048300E608F0A30808E608F0A3E608F0A3158140
:100493001581D0E0FED0E0F815811581E8C0E0EECB
:1004A300C0E022851183851082E0A3FEE0A3F5203E
:1004B3007808E0A3F608DFFAE0A3FFE0A3C0E0E0DA
:1004C300A3C0E0E0A3C0E0E0A3C0E010AF088582D2
:1004D300108583118008858210858311D2AFD08364
:1004E300D08222C0D02510C582C0E0E51134FFC5FB
:1004F30083C0E0E510C3958224F310AF0885831110
:100503008582108008858311858210D2AFC8F0A33D
:10051300E9F0A3EAF0A3EBF0A37908E709F0A3D885
:10052300FAECF0A3EDF0A3EEF0A3EFF0A3D0E0F02C
:10053300A3D0E0F0A3D0E0F0A3E520F0A3E5F0F032
:10054300A322851183851082E0C0E0A3E0F9A3E034
:10055300FAA3E0FBA37808E0F608A3DFFAE0FCA324
:10056300E0FDA3E0FEA3E0FFA3E0C0E0A3E0C0E062
:10057300A3E0F5D0A3E0F520A3E0A3F5F010AF08C6
:100583008583118582108008858311858210D2AFFF
:10059300D082D083D0E0F8D0E032740480047402B7
:1005A3008000C0E0F404120419D0E012030E22000C
:1005B300000000000000000070F8F8700000000068
:1005C3003878000078380020F8F820F8F820006028
:1005D300F09C9C9010000060600080C0600000B040
:1005E300F8C8F8B000800000407838000000000030
:1005F300C0E0301808000000081830E0C000008098
:10060300A0E0C0C0E0A080008080E0E08080000027
:100613000000000000000080808080808080000057
:100623000000000000000000000080C0603000F007
:10063300F808C868F8F0002020F0F8000000003047
:10064300380888F870000010188888F87000008057
:10065300C06030F8F80000F8F8888888080000E0E7
:10066300F09888880000003838080888F878007007
:10067300F8C888F870000070F88888F8F000000067
:1006830000606060000000000060606000000080A7
:10069300C060301808000000404040404040000067
:1006A30008183060C08000101888C878300000F047
:1006B300F808C8C8F8F000E0F01818F0E0000008E7
:1006C300F8F88888F87000E0F01808083830000857
:1006D300F8F80818F0E00008F8F88888C818000847
:1006E300F8F88888D83800E0F0180808383000F89F
:1006F300F88080F8F800000008F8F808000000000F
:10070300000008F8F8080008F8F880E078180008F6
:10071300F8F80800000000F8F870E070F8F800F846
:10072300F8E0C080F8F800E0F0180818F0E00008DE
:10073300F8F88888F87000E0F0180818F0E000086E
:10074300F8F88888F8700070F88888383000001846
:1007530008F8F808180000F8F80000F8F80000F8A6
:10076300F80000F8F80000F8F8008000F8F8003806
:1007730078C0C07838000078F88080F878000038B6
:100783001888E8781818000000F8F8080800003006
:1007930060C0800000000000000808F8F800002096
:1007A30030180C183020000000000000000000008A
:1007B300000C1C1000000000404040C080000008F6
:1007C300F8F84040C0800080C04040C080000080F6
:1007D300C04048F8F8000080C04040C0800000805E
:1007E300F0F8889810000080C0404080C0400008A6
:1007F300F8F88040C08000004040D8D800000000D6
:10080300004040D8D8000008F8F80080C04000003D
:100813000808F8F8000000C0C040C040C08000C015
:10082300C04040C080000080C04040C08000004005
:10083300C0804040C0800080C0404080C040004035
:10084300C0C000C0C0800080C04040C080000040E5
:10085300E0F04040400000C0C00000C0C00000C045
:10086300C00000C0C00000C0C0000000C0C0004005
:10087300C0800080C0400000C0C00000C0C000C0F5
:10088300404040C0C0000080C0703808080000002D
:100893000000787800000008083870C0800000303D
:1008A300380818302038080080C060C0800000007D
:1008B3000000000000000000000D0D00000000001B
:1008C30000000000000000020F0F020F0F020004DF
:1008D300041C1C070300000C0603010C0C0000079A
:1008E3000F080D070F0900000000000000000000C2
:1008F3000103060C08000000080C060301000000B9
:1009030002030101030200000000030300000000D2
:10091300101C0C0C00000000000000000000000090
:10092300000C0C0C0000000C060301000000000783
:100933000F0B09080F070008080F0F080800000C29
:100943000E0B090C0C0000040C08080F0700000133
:100953000101090F0F0900040C08080F0700000725
:100963000F08080F07000000000E0F01000000072A
:100973000F08090F07000000080C0F030000000018
:10098300000606060000000000161E0E0000000010
:100993000103060C08000000010101010101000030
:1009A300080C060301000000000D0D000000000705
:1009B3000F0809090901000F0F01010F0F000008BB
:1009C3000F0F08080F070003070C08080E0600089E
:1009D3000F0F080C070300080F0F0808090C000885
:1009E3000F0F080001000003070C08090F0F000F89
:1009F3000F00000F0F000000080F0F080000000792
:100A03000F08080F070000080F0F00030F0C000862
:100A13000F0F08080E0F000F0F0000000F0F000F3D
:100A23000F0001030F0F0003070C080C0703000856
:100A33000F0F0800000000030704161F1F13000810
:100A43000F0F00010F0E00060E08090F060000002D
:100A5300080F0F08000000070F08080F0700000326
:100A6300070C0C07030000010F0E010E0F01000E0F
:100A73000F01010F0E000000080F0F080000000C0B
:100A83000F0B08080C0E0000000F0F0808000000F1
:100A930000000103060C00000008080F0F0000000F
:100AA30000000000000000101010101010101000C3
:100AB30000000000000000060F0909070F080008E6
:100AC3000F0708080F0700070F08080C04000007AA
:100AD3000F0808070F0800070F09090D0500000894
:100AE3000F0F0800000000133724243F1F000008E5
:100AF3000F0F00000F0F000008080F0F0808001861
:100B03003820203F1F0000080F0F01030E0C0000C8
:100B130008080F0F0808000F0F0007000F0F000F42
:100B23000F00000F0F0000070F08080F0700002039
:100B33003F3F28080F0700070F08283F3F800008A2
:100B43000F0F0900010100040D090A0E0400000043
:100B5300070F080C040000070F0808070F0800031D
:100B6300070C0C07030000030F0C030C0F03000812
:100B73000C0703070C0800202327341C0F03000C69
:100B83000E0A09090C00000001070E080800000006
:100B930000000F0F00000008080E0701000000000E
:100BA30000000000000000070704040407070074A6
:100BB300F7120440E9FCEAFDEBFE75080175090034
:100BC30078081203D6E50842F2C28DEC4D4EF5B615
:100BD300A28D50FCE5BBF9E5BAFA75080175090069
:100BE300EE78081203D6E508F452F2E9FB7F02021D
:100BF30004A6E5C65480F853BEFBE59DA2E550FA72
:100C0300E59DA2E240F4007401697007744948F558
:100C1300C68005E9700288C6E5C6F8E59E6870FBE4
:100C230043BE0422E9F8E59EA2E64003790122E8E7
:100C3300700553C67F8008740168700343C680E55E
:100C4300C6F9E59E6970FB790022EBC313FBEA1337
:100C5300FAEAF8EBF9E824FFFAE934FFFBE8496024
:100C6300130000000000000000000000000000006E
:100C7300000080DD2274F8120440EAFEEBFFEEF878
:100C8300EFF9E824FFFEE934FFFFE84960097AE859
:100C93007B03120C4D80E77F010204A6C0E074F2CF
:100CA3001204E6A2AFE433FEC2AFE5E9A2E65016B2
:100CB3009001011210526008E0F583888212043E0D
:100CC300759B0053E9BFEEA2E092AF7F0102054599
:100CD300C292C280C2F989F9A2F950FC0000000057
:100CE300D29222C292D280C2F989F9A2F950FC8031
:100CF300EB74F112044074FE1203E974011204341C
:100D0300E9F0EAFEEBFF12186EEA85108285118383
:100D1300F08E0E8F0F7401120434E014C333FA798A
:100D230000120DD1750A0080298E828F83E024E0A2
:100D3300F50CE434FFF50D7403780C1203D6850C1F
:100D430008850D09A3AE82AF83F50B120DBC40FBE2
:100D5300050A851082851183E0F8E50AC39840C926
:100D63007401120434E0C33314FA7900120DD175FF
:100D73000A00802D850E82850F83E02440F50CE464
:100D83003400F50D7403780C1203D6850C08850D19
:100D930009A385820E85830FF50B120DBC40FB055D
:100DA3000A851082851183E0F8E50AC39840C5746B
:100DB300021203FF7F080204A6850B0CE508250C2D
:100DC300F8E509120E80050BE50BC394082274F8AD
:100DD300120440E9FEEAFF74B04FF9120CD3EEC4DB
:100DE300540F4410F9120CD3740F5EF9120CD37F15
:100DF300010204A674F3120440890A8A0B8B0CEADD
:100E0300C39410504EE9C39405504874FF250AC398
:100E130033120E5B24E0F508E434FFF5097403781C
:100E2300081203D6AE08AF09F50D120E6D40FBE5AF
:100E33000AC33324FF120E5B2440F508E43400F5A3
:100E430009740378081203D6AE08AF09F50D120E24
:100E53006D40FB7F060204A6FAE50B33333354F8E7
:100E6300F9120DD1850C08E50822850D08EE250839
:100E7300F8EF120E80050DE50DC39408223400F936
:100E830074B228F582740539F583E493F9120CE6FC
:100E93002274F7120440EA4B604478008A828B8301
:100EA300E0601DC0E0880874032508F58274011210
:100EB300151FD0E0F08A828B83A3AA82AB838010B4
:100EC300880874032508F582740112151F7420F035
:100ED30008E8C3941040C57A037B01120CF4020B9B
:100EE300F079011211EC79021211EC79031211EC71
:100EF30079041211EC7A327B00120C7880E374F7D8
:100F03001204408A828B83A3A3E0F960167508015B
:100F13007509008A828B83A3E078081203D6E5085B
:100F230069600579FF020FC18A828B83E060081430
:100F3300603214605C80ECE9F452F3A3A3A3E06491
:100F430001701B8A828B83A3A3A3A3E064017005B2
:100F5300E942808004E9F45280E942FD805EE9F4CD
:100F630052FD8058E9F452F4A3A3A3E06401701B7B
:100F73008A828B83A3A3A3A3E064017005E9429053
:100F83008004E9F45290E942FE8031E9F452FE8094
:100F93002BE9F452F5A3A3A3E06401701B8A828BAF
:100FA30083A3A3A3A3E064017005E942A08004E93D
:100FB300F452A0E942FF8004E9F452FF7900020BE6
:100FC300F0C082C0838A828B83E0600814601014AF
:100FD3006015801BA3A3E0F45289790002152FA3A7
:100FE300A3E0F4528A80F3A3A3E0F4528B80EB795D
:100FF300FF80E9C0E074F11204E6C2C5E5896047E9
:101003007E00750801750900EE78081203D6AF0853
:10101300E5895F602BEEC333F8E433F9741328F5E5
:1010230082740112104F6014EEC333F8E433F97481
:101033001328F58274011210B012043EEFF45289A2
:101043000EEEC3940840BB7F0202054539F583E0E9
:10105300F8A3E0F9E84922C0E074F11204E6C2EB18
:10106300E58A60477E00750801750900EE7808126D
:1010730003D6AF08E58A5F602BEEC333F8E433F998
:10108300742328F582740112104F6014EEC333F8F1
:10109300E433F9742328F58274011210B012043E6C
:1010A300EFF4528A0EEEC3940840BB809A39F5835D
:1010B300E0F8A3E0F583888222C0E074F11204E62D
:1010C300C2E8E58B60477E00750801750900EE787C
:1010D300081203D6AF08E58B5F602BEEC333F8E449
:1010E30033F9743328F582740112104F6014EEC380
:1010F30033F8E433F9743328F58274011210B01213
:10110300043EEFF4528B0EEEC3940540BB02104A2B
:10111300C082C083E9FCA2AFE433F8C2AFEC600F36
:1011230014601E14602014602224FE602380269025
:10113300013DEAF0A3EBF0E8A2E092AF79000215DB
:101143002F90013F80EC90014180E790014380E2C2
:1011530090014780DDE8A2E092AF790180E0439AF5
:101163000243AC01790022EEC0E0E9FE7B067A106F
:101173007980120BB2EB547FF8C3942850047900A2
:101183008020E8C3943C500479018016E8C3944A54
:1011930050047902800CE8C394545004790380020C
:1011A3007904EE6970C4D0E0FE22C082C0831211BC
:1011B3006AE9601D14600B14600D14600F1460164F
:1011C300802490013F8012900141800D9001438063
:1011D3000890013D80039001471210526008E0F52A
:1011E30083888212043E02152FC082C083E91460F3
:1011F3000B14600D14600F1460118019639001804B
:1012030014639002800F639010800A638002900140
:1012130049E06401F002152F74F112044074FB12CB
:1012230003E97401120434EAF0A3EBF0A3ECF0A396
:10123300EDF07A4A7B017401120434C082C08390BA
:1012430002ED78081202F0D083D08278081201F2FE
:10125300851082851183501C7401F01204347808C0
:101263001202F078081202DF7401120434780812B3
:1012730002FF8002E4F07401120434780C1202F0CD
:101283009002F178081202F0780C79081202A1E5B5
:101293000824308A828B83F0A3AA82AB8374011261
:1012A3000434780C1202F09002F178081202F078FC
:1012B3000C79081202A17401120434780C1202FF93
:1012C300740112043478081202F0E5084509450A4E
:1012D300450B70A2851082851183E0A2E0500B8A32
:1012E300828B83742DF0A30AAB838A828B83E412EF
:1012F3001328784A7901801D8A828B83E0FC8882D7
:101303008983E08A828B83121328EC88828983F095
:10131300A3A882A983C3E89AE99B40DC7A4A7B01AC
:101323007405020DB4F0EA24FF1AEB34FFFB2274B8
:10133300F512044074D41203E98A088B09851082DC
:10134300851183AC82AD8375830275827F740E121F
:10135300031B740E120434AC82AD83758302758251
:101363008D741E12031B90624AE014602A146057A6
:1013730024F1601D2490602B24FD60391460422405
:10138300FC603824F8601624EC602424F0601A8092
:101393003C7C757D02803A7C707D0280347C6B7D61
:1013A30002802E7C667D0280287C617D0280227C07
:1013B3005C7D02801C7C577D0280167C527D0280FE
:1013C300107C4D7D02800A7C487D0280047C7A7DFE
:1013D30002750A04750B00780A1205A1740712043A
:1013E30034AA82AB8312188A74021203FF906249F3
:1013F300E0C4540F2430C0E0740B120434D0E0F086
:10140300AA08AB0912186E8A0A8B0BAE0AAF0B74CB
:101413000E120434AA82AB8312186E8A0A8B0BEE67
:10142300250AF8EF350BF9C3E89411E99400500B42
:10143300AC08AD09AA82AB831218388510828511D6
:1014430083AA82AB837901120E94740E120434AA18
:1014530082AB837902120E947AAB7B027903120E6C
:1014630094742C1203FF7F040204A674F212044046
:10147300890E8A0C8B0DECFEEDFF740E120434788A
:10148300081202F0AA08AB09AC0AAD0B12121B8AB0
:10149300088B09A808A9097A00E50C450D60208589
:1014A3000C82850D83E06017C0E0121515D0E0F0C3
:1014B300850C82850D83A385820C85830D803E88F0
:1014C300828983E06013C0E0121515D0E0F08882B2
:1014D3008983A3A882A9838024EE4F601A8E828F0A
:1014E30083E06013C0E0121515D0E0F08E828F8385
:1014F300A3AE82AF8380061215157420F00AEAC3E7
:10150300941040957A567B01A90E120E947F070220
:1015130004A68A0874562508F58274013400F583FD
:1015230022C082C083900166E06401F0D083D08240
:1015330022C082C083900166E0600E900167E004E0
:10154300F0E0C394104002E4F080E1C082C08390D5
:101553000166E0600D900167E07004740F8002E0A3
:1015630014F080C8900166E4F0750E03900167F0F3
:10157300F9120C27E960107901120BF57900120CAE
:1015830027E96003120EE47900120BF543FE01C252
:101593009053F3FD53FDFD438F021217FED2AF901C
:1015A3006189E04460F09061FA7409F09061B2746B
:1015B30015F09061AEE4F09061A3E0D2E6F0439AB7
:1015C30001D2907AB57B021213327AB87B0B120CDC
:1015D300789002C7744FF01217FE7AC87B02120F7D
:1015E30001538CF7E5A8FEC2AF90013374ADF0A3AD
:1015F3007411F07AC87B02120FC4EEA2E792AF7A9D
:10160300247B15790012111379001211617A347B4E
:1016130015790312111379031211617A4E7B15792F
:10162300021211137902121161906189740CF08016
:101633004EEA3395E0FB0509E509C394085003021C
:1016430017D1EA24B1F508EB34FFF5093395E0F53A
:101653000AF50B780812059D7CC27D02900167E0B4
:10166300C333F8E433F974CD28F582740239F58372
:10167300E0FAA3E0FB790312146E74041203FF75FE
:101683000F0075080075F005E508A4240B90618F21
:10169300F075E1EC75E1E3906199E060FA9061899E
:1016A300E0D2E4F07AD07B07120C4D906198E0F819
:1016B30075E1EF75E1EC906189E0C2E4F0E8C0E028
:1016C300850F0A85080C750D007403780C1203D678
:1016D30012180BD0E0F00508E508C3941040A67576
:1016E30008007E8075090085090A85080C750D00C0
:1016F3007403780C1203D6121824EEC398A2D26591
:10170300D033501A85080C750D007403780C12033E
:10171300D67468250C250AE93400E0FE8001EE3317
:1017230095E0FF0509E509C3940840BBEE2429FEB3
:10173300EF3400FFC39400A2D265D03350047E007F
:101743008010C3EE946FEF9400A2D265D0334004AF
:101753007E6E7F007402650E70047A1180027A1A1D
:10176300EEF8EFF98A0AE8850AF0A4F8AAF0850AE8
:10177300F0E9A42AF97A6E7B00120375880A7509C9
:1017830000801EA80A75F00974FF250EC39509A4ED
:1017930098400C7B20AA0874012509F9120DF7055E
:1017A30009E509C3950E40DB0508E508C39410500D
:1017B300030216E5050FE50FC394085003021685CF
:1017C300900166E0602F7A80750E02750900850925
:1017D3000A12182A1203D6121824EAC398A2D26551
:1017E300D033400302163412182A1203D612180BF0
:1017F300E0FA021635750E0302168253F5FE53FF07
:10180300FE43F70143F3402212180F227468250C9C
:10181300F87401350DF9E8250AF582E93400F583FA
:101823002212180FE0F822900167E0F50C750D0005
:101833007403780C2274F8120440EAF8EBF980057B
:10184300A3AA82AB838A828B83E070F48C828D831C
:10185300E0A3AC82AD838A828B83F0A3AA82AB839D
:1018630070EAE8FAE9FB7F010204A6C082C0838A1A
:10187300828B838001A3E070FCE582C39AFAE5833F
:101883009BFBD083D0822274F712044074091204A4
:1018930034E0FEA3E0FFEAF8EBF98E088F09E508D0
:1018A30024FF1EE50934FFFFE508450960338C82F8
:1018B3008D83E0A3AC82AD838A828B83F0A3AA825B
:1018C300AB8370D6EEFCEFFDEC24FF1EED34FFFF7F
:1018D300EC4D600D8A828B83E4F0A3AA82AB8380F4
:0A18E300E3E8FAE9FB7F020204A625
:04000005000000D324
:00000001FF
